{
  "address": "0x35197AD5AF1E4EF87A89649A819C1Dc4D00aB1F5",
  "abi": [
    {
      "inputs": [
        {
          "internalType": "address",
          "name": "admin_",
          "type": "address"
        },
        {
          "internalType": "address",
          "name": "operator_",
          "type": "address"
        }
      ],
      "stateMutability": "nonpayable",
      "type": "constructor"
    },
    {
      "anonymous": false,
      "inputs": [
        {
          "indexed": true,
          "internalType": "address",
          "name": "fundraiser",
          "type": "address"
        },
        {
          "indexed": false,
          "internalType": "uint256",
          "name": "fundraisingAmount",
          "type": "uint256"
        },
        {
          "indexed": false,
          "internalType": "address",
          "name": "beneficiary",
          "type": "address"
        },
        {
          "indexed": false,
          "internalType": "bytes32",
          "name": "documentName",
          "type": "bytes32"
        },
        {
          "indexed": false,
          "internalType": "string",
          "name": "documentUri",
          "type": "string"
        },
        {
          "indexed": false,
          "internalType": "bytes32",
          "name": "documentHash",
          "type": "bytes32"
        }
      ],
      "name": "FundraiserCreated",
      "type": "event"
    },
    {
      "anonymous": false,
      "inputs": [
        {
          "indexed": true,
          "internalType": "bytes32",
          "name": "role",
          "type": "bytes32"
        },
        {
          "indexed": true,
          "internalType": "bytes32",
          "name": "previousAdminRole",
          "type": "bytes32"
        },
        {
          "indexed": true,
          "internalType": "bytes32",
          "name": "newAdminRole",
          "type": "bytes32"
        }
      ],
      "name": "RoleAdminChanged",
      "type": "event"
    },
    {
      "anonymous": false,
      "inputs": [
        {
          "indexed": true,
          "internalType": "bytes32",
          "name": "role",
          "type": "bytes32"
        },
        {
          "indexed": true,
          "internalType": "address",
          "name": "account",
          "type": "address"
        },
        {
          "indexed": true,
          "internalType": "address",
          "name": "sender",
          "type": "address"
        }
      ],
      "name": "RoleGranted",
      "type": "event"
    },
    {
      "anonymous": false,
      "inputs": [
        {
          "indexed": true,
          "internalType": "bytes32",
          "name": "role",
          "type": "bytes32"
        },
        {
          "indexed": true,
          "internalType": "address",
          "name": "account",
          "type": "address"
        },
        {
          "indexed": true,
          "internalType": "address",
          "name": "sender",
          "type": "address"
        }
      ],
      "name": "RoleRevoked",
      "type": "event"
    },
    {
      "inputs": [],
      "name": "DEFAULT_ADMIN_ROLE",
      "outputs": [
        {
          "internalType": "bytes32",
          "name": "",
          "type": "bytes32"
        }
      ],
      "stateMutability": "view",
      "type": "function"
    },
    {
      "inputs": [],
      "name": "OPERATOR_ROLE",
      "outputs": [
        {
          "internalType": "bytes32",
          "name": "",
          "type": "bytes32"
        }
      ],
      "stateMutability": "view",
      "type": "function"
    },
    {
      "inputs": [
        {
          "internalType": "uint256",
          "name": "fundraisingAmount",
          "type": "uint256"
        },
        {
          "internalType": "address",
          "name": "beneficiary",
          "type": "address"
        },
        {
          "components": [
            {
              "internalType": "bytes32",
              "name": "name",
              "type": "bytes32"
            },
            {
              "internalType": "string",
              "name": "uri",
              "type": "string"
            },
            {
              "internalType": "bytes32",
              "name": "hash",
              "type": "bytes32"
            }
          ],
          "internalType": "struct IFundraiserStruct.DocumentParams",
          "name": "document",
          "type": "tuple"
        }
      ],
      "name": "createFundraiser",
      "outputs": [
        {
          "internalType": "bool",
          "name": "",
          "type": "bool"
        }
      ],
      "stateMutability": "nonpayable",
      "type": "function"
    },
    {
      "inputs": [
        {
          "internalType": "uint256",
          "name": "fundraiserId",
          "type": "uint256"
        }
      ],
      "name": "fundraiserById",
      "outputs": [
        {
          "internalType": "address",
          "name": "",
          "type": "address"
        }
      ],
      "stateMutability": "view",
      "type": "function"
    },
    {
      "inputs": [
        {
          "internalType": "uint256",
          "name": "offset",
          "type": "uint256"
        },
        {
          "internalType": "uint256",
          "name": "limit",
          "type": "uint256"
        }
      ],
      "name": "fundraisers",
      "outputs": [
        {
          "internalType": "address[]",
          "name": "fundraisersAddresses",
          "type": "address[]"
        }
      ],
      "stateMutability": "view",
      "type": "function"
    },
    {
      "inputs": [],
      "name": "fundraisersCount",
      "outputs": [
        {
          "internalType": "uint256",
          "name": "",
          "type": "uint256"
        }
      ],
      "stateMutability": "view",
      "type": "function"
    },
    {
      "inputs": [
        {
          "internalType": "bytes32",
          "name": "role",
          "type": "bytes32"
        }
      ],
      "name": "getRoleAdmin",
      "outputs": [
        {
          "internalType": "bytes32",
          "name": "",
          "type": "bytes32"
        }
      ],
      "stateMutability": "view",
      "type": "function"
    },
    {
      "inputs": [
        {
          "internalType": "bytes32",
          "name": "role",
          "type": "bytes32"
        },
        {
          "internalType": "uint256",
          "name": "index",
          "type": "uint256"
        }
      ],
      "name": "getRoleMember",
      "outputs": [
        {
          "internalType": "address",
          "name": "",
          "type": "address"
        }
      ],
      "stateMutability": "view",
      "type": "function"
    },
    {
      "inputs": [
        {
          "internalType": "bytes32",
          "name": "role",
          "type": "bytes32"
        }
      ],
      "name": "getRoleMemberCount",
      "outputs": [
        {
          "internalType": "uint256",
          "name": "",
          "type": "uint256"
        }
      ],
      "stateMutability": "view",
      "type": "function"
    },
    {
      "inputs": [
        {
          "internalType": "bytes32",
          "name": "role",
          "type": "bytes32"
        },
        {
          "internalType": "address",
          "name": "account",
          "type": "address"
        }
      ],
      "name": "grantRole",
      "outputs": [],
      "stateMutability": "nonpayable",
      "type": "function"
    },
    {
      "inputs": [
        {
          "internalType": "bytes32",
          "name": "role",
          "type": "bytes32"
        },
        {
          "internalType": "address",
          "name": "account",
          "type": "address"
        }
      ],
      "name": "hasRole",
      "outputs": [
        {
          "internalType": "bool",
          "name": "",
          "type": "bool"
        }
      ],
      "stateMutability": "view",
      "type": "function"
    },
    {
      "inputs": [
        {
          "internalType": "address",
          "name": "fundraiserAddress",
          "type": "address"
        }
      ],
      "name": "isFundraiserExist",
      "outputs": [
        {
          "internalType": "bool",
          "name": "",
          "type": "bool"
        }
      ],
      "stateMutability": "view",
      "type": "function"
    },
    {
      "inputs": [
        {
          "internalType": "bytes32",
          "name": "role",
          "type": "bytes32"
        },
        {
          "internalType": "address",
          "name": "account",
          "type": "address"
        }
      ],
      "name": "renounceRole",
      "outputs": [],
      "stateMutability": "nonpayable",
      "type": "function"
    },
    {
      "inputs": [
        {
          "internalType": "bytes32",
          "name": "role",
          "type": "bytes32"
        },
        {
          "internalType": "address",
          "name": "account",
          "type": "address"
        }
      ],
      "name": "revokeRole",
      "outputs": [],
      "stateMutability": "nonpayable",
      "type": "function"
    },
    {
      "inputs": [
        {
          "internalType": "bytes4",
          "name": "interfaceId",
          "type": "bytes4"
        }
      ],
      "name": "supportsInterface",
      "outputs": [
        {
          "internalType": "bool",
          "name": "",
          "type": "bool"
        }
      ],
      "stateMutability": "view",
      "type": "function"
    }
  ],
  "transactionHash": "0xef1c8eb35467c9c8e9b3aeaea25f53017248cb660ce11fb29855d463fd1ed839",
  "args": [
    "0x2aE4874B596F9CbE37d8709B84063781D7Ce9C3d",
    "0x2aE4874B596F9CbE37d8709B84063781D7Ce9C3d"
  ],
  "numDeployments": 2,
  "solcInputHash": "d92b26a9e2d3c79efdf850f4f9291cef",
  "bytecode": "0x608060405234801562000010575f80fd5b5060405162002df938038062002df983398101604081905262000033916200029b565b6001600160a01b0382166200009e5760405162461bcd60e51b815260206004820152602660248201527f476f6f64646f6572466163746f72793a2041646d696e206973207a65726f206160448201526564647265737360d01b60648201526084015b60405180910390fd5b6001600160a01b038116620001085760405162461bcd60e51b815260206004820152602960248201527f476f6f64646f6572466163746f72793a204f70657261746f72206973207a65726044820152686f206164647265737360b81b606482015260840162000095565b620001145f8362000148565b620001407f97667070c54ef182b0f5858b034beac1b6f3089aa2d3188bb1e8929f4fa9b9298262000148565b5050620002d1565b62000154828262000172565b5f8281526001602052604090206200016d908262000211565b505050565b5f828152602081815260408083206001600160a01b038516845290915290205460ff166200020d575f828152602081815260408083206001600160a01b03851684529091529020805460ff19166001179055620001cc3390565b6001600160a01b0316816001600160a01b0316837f2f8788117e7eff1d82e926ec794901d17c78024a50270940304540a733656f0d60405160405180910390a45b5050565b5f62000227836001600160a01b03841662000230565b90505b92915050565b5f8181526001830160205260408120546200027757508154600181810184555f8481526020808220909301849055845484825282860190935260409020919091556200022a565b505f6200022a565b80516001600160a01b038116811462000296575f80fd5b919050565b5f8060408385031215620002ad575f80fd5b620002b8836200027f565b9150620002c8602084016200027f565b90509250929050565b612b1a80620002df5f395ff3fe608060405234801562000010575f80fd5b506004361062000104575f3560e01c8063755f4df2116200009f578063a217fddf116200006b578063a217fddf1462000254578063ca15c873146200025c578063d547741f1462000273578063f5b541a6146200028a575f80fd5b8063755f4df214620002055780639010d07c146200021c57806391d1485414620002335780639d3b4355146200024a575f80fd5b806336568abe11620000df57806336568abe14620001815780634122af4f14620001985780634598775e14620001af578063704914f814620001df575f80fd5b806301ffc9a71462000108578063248a9ca314620001345780632f2ff15d1462000168575b5f80fd5b6200011f6200011936600462000e38565b620002b2565b60405190151581526020015b60405180910390f35b620001596200014536600462000e61565b5f9081526020819052604090206001015490565b6040519081526020016200012b565b6200017f6200017936600462000e95565b620002df565b005b6200017f6200019236600462000e95565b6200030c565b6200011f620001a936600462000ec2565b62000392565b620001c6620001c036600462000e61565b620003a0565b6040516001600160a01b0390911681526020016200012b565b620001f6620001f036600462000ede565b62000419565b6040516200012b919062000eff565b6200011f6200021636600462000f4d565b62000527565b620001c66200022d36600462000ede565b62000817565b6200011f6200024436600462000e95565b62000837565b620001596200085f565b620001595f81565b620001596200026d36600462000e61565b62000871565b6200017f6200028436600462000e95565b62000889565b620001597f97667070c54ef182b0f5858b034beac1b6f3089aa2d3188bb1e8929f4fa9b92981565b5f6001600160e01b03198216635a05180f60e01b1480620002d95750620002d982620008b1565b92915050565b5f82815260208190526040902060010154620002fb81620008e7565b620003078383620008f6565b505050565b6001600160a01b0381163314620003825760405162461bcd60e51b815260206004820152602f60248201527f416363657373436f6e74726f6c3a2063616e206f6e6c792072656e6f756e636560448201526e103937b632b9903337b91039b2b63360891b60648201526084015b60405180910390fd5b6200038e82826200091b565b5050565b5f620002d960028362000940565b5f620003ad600262000962565b82106200040c5760405162461bcd60e51b815260206004820152602660248201527f476f6f64646f6572466163746f72793a20496e76616c69642066756e647261696044820152651cd95c881a5960d21b606482015260840162000379565b620002d96002836200096c565b60605f62000428600262000962565b905080841062000448575050604080515f815260208101909152620002d9565b5f62000455848662000fd3565b905080821015620004635750805b6200046f858262000fe9565b67ffffffffffffffff8111156200048a576200048a62000fab565b604051908082528060200260200182016040528015620004b4578160200160208202803683370190505b5092505f5b83518110156200051e57620004dc620004d3828862000fd3565b6002906200096c565b848281518110620004f157620004f162000fff565b6001600160a01b039092166020928302919091019091015280620005158162001013565b915050620004b9565b50505092915050565b5f835f036200058e5760405162461bcd60e51b815260206004820152602c60248201527f476f6f64646f6572466163746f72793a2046756e6472616973696e6720616d6f60448201526b756e74206c7465207a65726f60a01b606482015260840162000379565b6001600160a01b038316620005fb5760405162461bcd60e51b815260206004820152602c60248201527f476f6f64646f6572466163746f72793a2042656e65666963696172792069732060448201526b7a65726f206164647265737360a01b606482015260840162000379565b8135620006605760405162461bcd60e51b815260206004820152602c60248201527f476f6f64646f6572466163746f72793a20446f63756d656e74206e616d65206960448201526b73207a65726f20627974657360a01b606482015260840162000379565b5f6200067060208401846200102e565b905011620006d05760405162461bcd60e51b815260206004820152602660248201527f476f6f64646f6572466163746f72793a20446f63756d656e742075726920697360448201526520656d70747960d01b606482015260840162000379565b5f60405180602001620006e39062000e2a565b601f1982820381018352601f9091011660408190526200070c90879087908790602001620010a3565b60408051601f19818403018152908290526200072c92916020016200115a565b60408051601f1981840301815291905290505f858585356200075260208801886200102e565b88604001356040516020016200076e969594939291906200118c565b6040516020818303038152906040528051906020012090505f818351602085015ff59050803b6200079d575f80fd5b620007aa60028262000979565b506001600160a01b0381167fe8333866aa1ed2bfa2e686cd62d1ccfffd5031430afe9ace15197848d2a980f988888835620007e960208b018b6200102e565b8b604001356040516200080296959493929190620011c7565b60405180910390a25060019695505050505050565b5f8281526001602052604081206200083090836200096c565b9392505050565b5f918252602082815260408084206001600160a01b0393909316845291905290205460ff1690565b5f6200086c600262000962565b905090565b5f818152600160205260408120620002d99062000962565b5f82815260208190526040902060010154620008a581620008e7565b6200030783836200091b565b5f6001600160e01b03198216637965db0b60e01b1480620002d957506301ffc9a760e01b6001600160e01b0319831614620002d9565b620008f381336200098f565b50565b620009028282620009f3565b5f82815260016020526040902062000307908262000979565b62000927828262000a7a565b5f82815260016020526040902062000307908262000ae1565b6001600160a01b0381165f908152600183016020526040812054151562000830565b5f620002d9825490565b5f62000830838362000af7565b5f62000830836001600160a01b03841662000b20565b6200099b828262000837565b6200038e57620009ab8162000b6f565b620009b883602062000b82565b604051602001620009cb92919062001209565b60408051601f198184030181529082905262461bcd60e51b8252620003799160040162001281565b620009ff828262000837565b6200038e575f828152602081815260408083206001600160a01b03851684529091529020805460ff1916600117905562000a363390565b6001600160a01b0316816001600160a01b0316837f2f8788117e7eff1d82e926ec794901d17c78024a50270940304540a733656f0d60405160405180910390a45050565b62000a86828262000837565b156200038e575f828152602081815260408083206001600160a01b0385168085529252808320805460ff1916905551339285917ff6391f5c32d9c69d2a47ea670b442974b53935d1edc7fd64eb21e047a839171b9190a45050565b5f62000830836001600160a01b03841662000d36565b5f825f01828154811062000b0f5762000b0f62000fff565b905f5260205f200154905092915050565b5f81815260018301602052604081205462000b6757508154600181810184555f848152602080822090930184905584548482528286019093526040902091909155620002d9565b505f620002d9565b6060620002d96001600160a01b03831660145b60605f62000b92836002620012b5565b62000b9f90600262000fd3565b67ffffffffffffffff81111562000bba5762000bba62000fab565b6040519080825280601f01601f19166020018201604052801562000be5576020820181803683370190505b509050600360fc1b815f8151811062000c025762000c0262000fff565b60200101906001600160f81b03191690815f1a905350600f60fb1b8160018151811062000c335762000c3362000fff565b60200101906001600160f81b03191690815f1a9053505f62000c57846002620012b5565b62000c6490600162000fd3565b90505b600181111562000ce5576f181899199a1a9b1b9c1cb0b131b232b360811b85600f166010811062000c9c5762000c9c62000fff565b1a60f81b82828151811062000cb55762000cb562000fff565b60200101906001600160f81b03191690815f1a90535060049490941c9362000cdd81620012cf565b905062000c67565b508315620008305760405162461bcd60e51b815260206004820181905260248201527f537472696e67733a20686578206c656e67746820696e73756666696369656e74604482015260640162000379565b5f818152600183016020526040812054801562000e20575f62000d5b60018362000fe9565b85549091505f9062000d709060019062000fe9565b905081811462000dd6575f865f01828154811062000d925762000d9262000fff565b905f5260205f200154905080875f01848154811062000db55762000db562000fff565b5f918252602080832090910192909255918252600188019052604090208390555b855486908062000dea5762000dea620012e7565b600190038181905f5260205f20015f90559055856001015f8681526020019081526020015f205f905560019350505050620002d9565b5f915050620002d9565b6117e980620012fc83390190565b5f6020828403121562000e49575f80fd5b81356001600160e01b03198116811462000830575f80fd5b5f6020828403121562000e72575f80fd5b5035919050565b80356001600160a01b038116811462000e90575f80fd5b919050565b5f806040838503121562000ea7575f80fd5b8235915062000eb96020840162000e79565b90509250929050565b5f6020828403121562000ed3575f80fd5b620008308262000e79565b5f806040838503121562000ef0575f80fd5b50508035926020909101359150565b602080825282518282018190525f9190848201906040850190845b8181101562000f415783516001600160a01b03168352928401929184019160010162000f1a565b50909695505050505050565b5f805f6060848603121562000f60575f80fd5b8335925062000f726020850162000e79565b9150604084013567ffffffffffffffff81111562000f8e575f80fd5b84016060818703121562000fa0575f80fd5b809150509250925092565b634e487b7160e01b5f52604160045260245ffd5b634e487b7160e01b5f52601160045260245ffd5b80820180821115620002d957620002d962000fbf565b81810381811115620002d957620002d962000fbf565b634e487b7160e01b5f52603260045260245ffd5b5f6001820162001027576200102762000fbf565b5060010190565b5f808335601e1984360301811262001044575f80fd5b83018035915067ffffffffffffffff8211156200105f575f80fd5b60200191503681900382131562001074575f80fd5b9250929050565b81835281816020850137505f828201602090810191909152601f909101601f19169091010190565b83815260018060a01b038316602082015260606040820152813560608201525f6020830135601e19843603018112620010da575f80fd5b830160208101903567ffffffffffffffff811115620010f7575f80fd5b80360382131562001106575f80fd5b606060808501526200111d60c0850182846200107b565b915050604084013560a084015280915050949350505050565b5f5b838110156200115257818101518382015260200162001138565b50505f910152565b5f83516200116d81846020880162001136565b8351908301906200118381836020880162001136565b01949350505050565b8681526bffffffffffffffffffffffff198660601b166020820152846034820152828460548301376054920191820152607401949350505050565b86815260018060a01b038616602082015284604082015260a060608201525f620011f660a0830185876200107b565b9050826080830152979650505050505050565b7f416363657373436f6e74726f6c3a206163636f756e742000000000000000000081525f83516200124281601785016020880162001136565b7001034b99036b4b9b9b4b733903937b6329607d1b60179184019182015283516200127581602884016020880162001136565b01602801949350505050565b602081525f8251806020840152620012a181604085016020870162001136565b601f01601f19169190910160400192915050565b8082028115828204841417620002d957620002d962000fbf565b5f81620012e057620012e062000fbf565b505f190190565b634e487b7160e01b5f52603160045260245ffdfe60a060405234801562000010575f80fd5b50604051620017e9380380620017e983398101604081905262000033916200038e565b33608081905262000066907fdfbefbf47cfe66b701d8cfdbce1de81c821590819cb07e71cb01b6602fb0ee2790620000d4565b620000927fa49807205ce4d355092ef5a8a18f56e8913cf4a201fbe287825b095693c2177583620000d4565b6004839055600580546001600160a01b0319166001600160a01b038416179055805160208201516040830151620000cb9291906200015e565b5050506200061f565b620000e0828262000269565b6200015a575f8281526003602090815260408083206001600160a01b03851684529091529020805460ff19166001179055620001193390565b6001600160a01b0316816001600160a01b0316837f2f8788117e7eff1d82e926ec794901d17c78024a50270940304540a733656f0d60405160405180910390a45b5050565b826200018a5760405162461bcd60e51b8152602060048201525f60248201526044015b60405180910390fd5b5f825111620001b55760405162461bcd60e51b8152602060048201525f602482015260440162000181565b5f838152602081905260408120600101549003620001dc57620001da60018262000295565b505b604080516060810182528281524260208083019182528284018681525f888152918290529390208251815590516001820155915190919060028201906200022490826200051b565b50905050827fb4c22d60cd550a815744f04e3ff5278bf19684565ee00e2b084041b6024bd6f683836040516200025c929190620005e3565b60405180910390a2505050565b5f8281526003602090815260408083206001600160a01b038516845290915290205460ff165b92915050565b5f620002a28383620002a9565b9392505050565b5f818152600183016020526040812054620002f057508154600181810184555f8481526020808220909301849055845484825282860190935260409020919091556200028f565b505f6200028f565b634e487b7160e01b5f52604160045260245ffd5b604051606081016001600160401b0381118282101715620003315762000331620002f8565b60405290565b604051601f8201601f191681016001600160401b0381118282101715620003625762000362620002f8565b604052919050565b5f5b83811015620003865781810151838201526020016200036c565b50505f910152565b5f805f60608486031215620003a1575f80fd5b8351602080860151919450906001600160a01b0381168114620003c2575f80fd5b60408601519093506001600160401b0380821115620003df575f80fd5b9086019060608289031215620003f3575f80fd5b620003fd6200030c565b82518152838301518281111562000412575f80fd5b8301601f81018a1362000423575f80fd5b805183811115620004385762000438620002f8565b6200044c601f8201601f1916870162000337565b93508084528a8682840101111562000462575f80fd5b62000473818786018885016200036a565b5050928301526040908101519082015292959194509192509050565b600181811c90821680620004a457607f821691505b602082108103620004c357634e487b7160e01b5f52602260045260245ffd5b50919050565b601f82111562000516575f81815260208120601f850160051c81016020861015620004f15750805b601f850160051c820191505b818110156200051257828155600101620004fd565b5050505b505050565b81516001600160401b03811115620005375762000537620002f8565b6200054f816200054884546200048f565b84620004c9565b602080601f83116001811462000585575f84156200056d5750858301515b5f19600386901b1c1916600185901b17855562000512565b5f85815260208120601f198616915b82811015620005b55788860151825594840194600190910190840162000594565b5085821015620005d357878501515f19600388901b60f8161c191681555b5050505050600190811b01905550565b604081525f8351806040840152620006038160608501602088016200036a565b602083019390935250601f91909101601f191601606001919050565b6080516111b1620006385f395f61027601526111b15ff3fe608060405234801561000f575f80fd5b50600436106100fb575f3560e01c806375b238fc11610093578063b10d6b4111610063578063b10d6b411461023c578063c35018481461025e578063c45a015514610271578063d547741f14610298575f80fd5b806375b238fc146101e657806391d148541461020d5780639fa5f50b14610220578063a217fddf14610235575f80fd5b80632f2ff15d116100ce5780632f2ff15d1461019157806336568abe146101a657806338af3eed146101b957806374dcba56146101de575f80fd5b8063010648ca146100ff57806301ffc9a71461012757806304a0fb171461013a578063248a9ca31461016f575b5f80fd5b61011261010d366004610d23565b6102ab565b60405190151581526020015b60405180910390f35b610112610135366004610de0565b6102ec565b6101617fdfbefbf47cfe66b701d8cfdbce1de81c821590819cb07e71cb01b6602fb0ee2781565b60405190815260200161011e565b61016161017d366004610e07565b5f9081526003602052604090206001015490565b6101a461019f366004610e1e565b610322565b005b6101a46101b4366004610e1e565b61034b565b6005546001600160a01b03165b6040516001600160a01b03909116815260200161011e565b600454610161565b6101617fa49807205ce4d355092ef5a8a18f56e8913cf4a201fbe287825b095693c2177581565b61011261021b366004610e1e565b6103ce565b6102286103f8565b60405161011e9190610e57565b6101615f81565b61024f61024a366004610e07565b610446565b60405161011e93929190610ee7565b61011261026c366004610e07565b610565565b6101c67f000000000000000000000000000000000000000000000000000000000000000081565b6101a46102a6366004610e1e565b6105a4565b5f7fa49807205ce4d355092ef5a8a18f56e8913cf4a201fbe287825b095693c217756102d6816105c8565b6102e18585856105d5565b506001949350505050565b5f6001600160e01b03198216637965db0b60e01b148061031c57506301ffc9a760e01b6001600160e01b03198316145b92915050565b5f8281526003602052604090206001015461033c816105c8565b61034683836106d1565b505050565b6001600160a01b03811633146103c05760405162461bcd60e51b815260206004820152602f60248201527f416363657373436f6e74726f6c3a2063616e206f6e6c792072656e6f756e636560448201526e103937b632b9903337b91039b2b63360891b60648201526084015b60405180910390fd5b6103ca8282610756565b5050565b5f9182526003602090815260408084206001600160a01b0393909316845291905290205460ff1690565b60605f61040560016107bc565b90505f5b818110156104415761041c6001826107c5565b83828151811061042e5761042e610f0b565b6020908102919091010152600101610409565b505090565b5f818152602081905260408120600201805460609291829161046790610f1f565b90505f036104905760405162461bcd60e51b8152602060048201525f60248201526044016103b7565b5f8481526020818152604080832081516060810183528154815260018201549381019390935260028101805491928401916104ca90610f1f565b80601f01602080910402602001604051908101604052809291908181526020018280546104f690610f1f565b80156105415780601f1061051857610100808354040283529160200191610541565b820191905f5260205f20905b81548152906001019060200180831161052457829003601f168201915b50505091909252505050604081015181516020909201519097919650945092505050565b5f7fa49807205ce4d355092ef5a8a18f56e8913cf4a201fbe287825b095693c21775610590816105c8565b610599836107d7565b600191505b50919050565b5f828152600360205260409020600101546105be816105c8565b6103468383610756565b6105d28133610959565b50565b826105fb5760405162461bcd60e51b8152602060048201525f60248201526044016103b7565b5f8251116106245760405162461bcd60e51b8152602060048201525f60248201526044016103b7565b5f838152602081905260408120600101549003610648576106466001826109b2565b505b604080516060810182528281524260208083019182528284018681525f8881529182905293902082518155905160018201559151909190600282019061068e9082610f9e565b50905050827fb4c22d60cd550a815744f04e3ff5278bf19684565ee00e2b084041b6024bd6f683836040516106c492919061105a565b60405180910390a2505050565b6106db82826103ce565b6103ca575f8281526003602090815260408083206001600160a01b03851684529091529020805460ff191660011790556107123390565b6001600160a01b0316816001600160a01b0316837f2f8788117e7eff1d82e926ec794901d17c78024a50270940304540a733656f0d60405160405180910390a45050565b61076082826103ce565b156103ca575f8281526003602090815260408083206001600160a01b0385168085529252808320805460ff1916905551339285917ff6391f5c32d9c69d2a47ea670b442974b53935d1edc7fd64eb21e047a839171b9190a45050565b5f61031c825490565b5f6107d083836109bd565b9392505050565b5f81815260208181526040808320815160608101835281548152600182015493810193909352600281018054919284019161081190610f1f565b80601f016020809104026020016040519081016040528092919081815260200182805461083d90610f1f565b80156108885780601f1061085f57610100808354040283529160200191610888565b820191905f5260205f20905b81548152906001019060200180831161086b57829003601f168201915b505050505081525050905080602001515f036108de5760405162461bcd60e51b8152602060048201526015602482015274111bd8dd5b595b9d08191bd95cdb9d08195e1a5cdd605a1b60448201526064016103b7565b80516108ec906001906109e3565b505f82815260208190526040812081815560018101829055906109126002830182610cc5565b5050817f3d9bba27d3e360d8c80645beed7e991454a8271bf6f269a24f7782be0f0d06548260400151835f015160405161094d92919061105a565b60405180910390a25050565b61096382826103ce565b6103ca57610970816109ee565b61097b836020610a00565b60405160200161098c92919061107b565b60408051601f198184030181529082905262461bcd60e51b82526103b7916004016110ef565b5f6107d08383610b96565b5f825f0182815481106109d2576109d2610f0b565b905f5260205f200154905092915050565b5f6107d08383610be2565b606061031c6001600160a01b03831660145b60605f610a0e836002611115565b610a1990600261112c565b67ffffffffffffffff811115610a3157610a31610d0f565b6040519080825280601f01601f191660200182016040528015610a5b576020820181803683370190505b509050600360fc1b815f81518110610a7557610a75610f0b565b60200101906001600160f81b03191690815f1a905350600f60fb1b81600181518110610aa357610aa3610f0b565b60200101906001600160f81b03191690815f1a9053505f610ac5846002611115565b610ad090600161112c565b90505b6001811115610b47576f181899199a1a9b1b9c1cb0b131b232b360811b85600f1660108110610b0457610b04610f0b565b1a60f81b828281518110610b1a57610b1a610f0b565b60200101906001600160f81b03191690815f1a90535060049490941c93610b408161113f565b9050610ad3565b5083156107d05760405162461bcd60e51b815260206004820181905260248201527f537472696e67733a20686578206c656e67746820696e73756666696369656e7460448201526064016103b7565b5f818152600183016020526040812054610bdb57508154600181810184555f84815260208082209093018490558454848252828601909352604090209190915561031c565b505f61031c565b5f8181526001830160205260408120548015610cbc575f610c04600183611154565b85549091505f90610c1790600190611154565b9050818114610c76575f865f018281548110610c3557610c35610f0b565b905f5260205f200154905080875f018481548110610c5557610c55610f0b565b5f918252602080832090910192909255918252600188019052604090208390555b8554869080610c8757610c87611167565b600190038181905f5260205f20015f90559055856001015f8681526020019081526020015f205f90556001935050505061031c565b5f91505061031c565b508054610cd190610f1f565b5f825580601f10610ce0575050565b601f0160209004905f5260205f20908101906105d291905b80821115610d0b575f8155600101610cf8565b5090565b634e487b7160e01b5f52604160045260245ffd5b5f805f60608486031215610d35575f80fd5b83359250602084013567ffffffffffffffff80821115610d53575f80fd5b818601915086601f830112610d66575f80fd5b813581811115610d7857610d78610d0f565b604051601f8201601f19908116603f01168101908382118183101715610da057610da0610d0f565b81604052828152896020848701011115610db8575f80fd5b826020860160208301375f602084830101528096505050505050604084013590509250925092565b5f60208284031215610df0575f80fd5b81356001600160e01b0319811681146107d0575f80fd5b5f60208284031215610e17575f80fd5b5035919050565b5f8060408385031215610e2f575f80fd5b8235915060208301356001600160a01b0381168114610e4c575f80fd5b809150509250929050565b602080825282518282018190525f9190848201906040850190845b81811015610e8e57835183529284019291840191600101610e72565b50909695505050505050565b5f5b83811015610eb4578181015183820152602001610e9c565b50505f910152565b5f8151808452610ed3816020860160208601610e9a565b601f01601f19169290920160200192915050565b606081525f610ef96060830186610ebc565b60208301949094525060400152919050565b634e487b7160e01b5f52603260045260245ffd5b600181811c90821680610f3357607f821691505b60208210810361059e57634e487b7160e01b5f52602260045260245ffd5b601f821115610346575f81815260208120601f850160051c81016020861015610f775750805b601f850160051c820191505b81811015610f9657828155600101610f83565b505050505050565b815167ffffffffffffffff811115610fb857610fb8610d0f565b610fcc81610fc68454610f1f565b84610f51565b602080601f831160018114610fff575f8415610fe85750858301515b5f19600386901b1c1916600185901b178555610f96565b5f85815260208120601f198616915b8281101561102d5788860151825594840194600190910190840161100e565b508582101561104a57878501515f19600388901b60f8161c191681555b5050505050600190811b01905550565b604081525f61106c6040830185610ebc565b90508260208301529392505050565b7f416363657373436f6e74726f6c3a206163636f756e742000000000000000000081525f83516110b2816017850160208801610e9a565b7001034b99036b4b9b9b4b733903937b6329607d1b60179184019182015283516110e3816028840160208801610e9a565b01602801949350505050565b602081525f6107d06020830184610ebc565b634e487b7160e01b5f52601160045260245ffd5b808202811582820484141761031c5761031c611101565b8082018082111561031c5761031c611101565b5f8161114d5761114d611101565b505f190190565b8181038181111561031c5761031c611101565b634e487b7160e01b5f52603160045260245ffdfea264697066735822122062282368c18fe54c36df3c14f702b0b0398aa333a651bf98d42c88650e835b2a64736f6c63430008150033a264697066735822122010e68d83d0239fca39a81da991435fc95d9697e2ac98a110f6de855e09f82c7e64736f6c63430008150033",
  "devdoc": {
    "events": {
      "RoleAdminChanged(bytes32,bytes32,bytes32)": {
        "details": "Emitted when `newAdminRole` is set as ``role``'s admin role, replacing `previousAdminRole` `DEFAULT_ADMIN_ROLE` is the starting admin for all roles, despite {RoleAdminChanged} not being emitted signaling this. _Available since v3.1._"
      },
      "RoleGranted(bytes32,address,address)": {
        "details": "Emitted when `account` is granted `role`. `sender` is the account that originated the contract call, an admin role bearer except when using {AccessControl-_setupRole}."
      },
      "RoleRevoked(bytes32,address,address)": {
        "details": "Emitted when `account` is revoked `role`. `sender` is the account that originated the contract call:   - if using `revokeRole`, it is the admin role bearer   - if using `renounceRole`, it is the role bearer (i.e. `account`)"
      }
    },
    "kind": "dev",
    "methods": {
      "getRoleAdmin(bytes32)": {
        "details": "Returns the admin role that controls `role`. See {grantRole} and {revokeRole}. To change a role's admin, use {_setRoleAdmin}."
      },
      "getRoleMember(bytes32,uint256)": {
        "details": "Returns one of the accounts that have `role`. `index` must be a value between 0 and {getRoleMemberCount}, non-inclusive. Role bearers are not sorted in any particular way, and their ordering may change at any point. WARNING: When using {getRoleMember} and {getRoleMemberCount}, make sure you perform all queries on the same block. See the following https://forum.openzeppelin.com/t/iterating-over-elements-on-enumerableset-in-openzeppelin-contracts/2296[forum post] for more information."
      },
      "getRoleMemberCount(bytes32)": {
        "details": "Returns the number of accounts that have `role`. Can be used together with {getRoleMember} to enumerate all bearers of a role."
      },
      "grantRole(bytes32,address)": {
        "details": "Grants `role` to `account`. If `account` had not been already granted `role`, emits a {RoleGranted} event. Requirements: - the caller must have ``role``'s admin role. May emit a {RoleGranted} event."
      },
      "hasRole(bytes32,address)": {
        "details": "Returns `true` if `account` has been granted `role`."
      },
      "renounceRole(bytes32,address)": {
        "details": "Revokes `role` from the calling account. Roles are often managed via {grantRole} and {revokeRole}: this function's purpose is to provide a mechanism for accounts to lose their privileges if they are compromised (such as when a trusted device is misplaced). If the calling account had been revoked `role`, emits a {RoleRevoked} event. Requirements: - the caller must be `account`. May emit a {RoleRevoked} event."
      },
      "revokeRole(bytes32,address)": {
        "details": "Revokes `role` from `account`. If `account` had been granted `role`, emits a {RoleRevoked} event. Requirements: - the caller must have ``role``'s admin role. May emit a {RoleRevoked} event."
      },
      "supportsInterface(bytes4)": {
        "details": "See {IERC165-supportsInterface}."
      }
    },
    "version": 1
  },
  "userdoc": {
    "kind": "user",
    "methods": {},
    "version": 1
  },
  "storageLayout": {
    "storage": [
      {
        "astId": 24,
        "contract": "contracts/GooddoerFactory.sol:GooddoerFactory",
        "label": "_roles",
        "offset": 0,
        "slot": "0",
        "type": "t_mapping(t_bytes32,t_struct(RoleData)19_storage)"
      },
      {
        "astId": 334,
        "contract": "contracts/GooddoerFactory.sol:GooddoerFactory",
        "label": "_roleMembers",
        "offset": 0,
        "slot": "1",
        "type": "t_mapping(t_bytes32,t_struct(AddressSet)2122_storage)"
      },
      {
        "astId": 2827,
        "contract": "contracts/GooddoerFactory.sol:GooddoerFactory",
        "label": "_fundraisers",
        "offset": 0,
        "slot": "2",
        "type": "t_struct(AddressSet)2122_storage"
      }
    ],
    "types": {
      "t_address": {
        "encoding": "inplace",
        "label": "address",
        "numberOfBytes": "20"
      },
      "t_array(t_bytes32)dyn_storage": {
        "base": "t_bytes32",
        "encoding": "dynamic_array",
        "label": "bytes32[]",
        "numberOfBytes": "32"
      },
      "t_bool": {
        "encoding": "inplace",
        "label": "bool",
        "numberOfBytes": "1"
      },
      "t_bytes32": {
        "encoding": "inplace",
        "label": "bytes32",
        "numberOfBytes": "32"
      },
      "t_mapping(t_address,t_bool)": {
        "encoding": "mapping",
        "key": "t_address",
        "label": "mapping(address => bool)",
        "numberOfBytes": "32",
        "value": "t_bool"
      },
      "t_mapping(t_bytes32,t_struct(AddressSet)2122_storage)": {
        "encoding": "mapping",
        "key": "t_bytes32",
        "label": "mapping(bytes32 => struct EnumerableSet.AddressSet)",
        "numberOfBytes": "32",
        "value": "t_struct(AddressSet)2122_storage"
      },
      "t_mapping(t_bytes32,t_struct(RoleData)19_storage)": {
        "encoding": "mapping",
        "key": "t_bytes32",
        "label": "mapping(bytes32 => struct AccessControl.RoleData)",
        "numberOfBytes": "32",
        "value": "t_struct(RoleData)19_storage"
      },
      "t_mapping(t_bytes32,t_uint256)": {
        "encoding": "mapping",
        "key": "t_bytes32",
        "label": "mapping(bytes32 => uint256)",
        "numberOfBytes": "32",
        "value": "t_uint256"
      },
      "t_struct(AddressSet)2122_storage": {
        "encoding": "inplace",
        "label": "struct EnumerableSet.AddressSet",
        "members": [
          {
            "astId": 2121,
            "contract": "contracts/GooddoerFactory.sol:GooddoerFactory",
            "label": "_inner",
            "offset": 0,
            "slot": "0",
            "type": "t_struct(Set)1807_storage"
          }
        ],
        "numberOfBytes": "64"
      },
      "t_struct(RoleData)19_storage": {
        "encoding": "inplace",
        "label": "struct AccessControl.RoleData",
        "members": [
          {
            "astId": 16,
            "contract": "contracts/GooddoerFactory.sol:GooddoerFactory",
            "label": "members",
            "offset": 0,
            "slot": "0",
            "type": "t_mapping(t_address,t_bool)"
          },
          {
            "astId": 18,
            "contract": "contracts/GooddoerFactory.sol:GooddoerFactory",
            "label": "adminRole",
            "offset": 0,
            "slot": "1",
            "type": "t_bytes32"
          }
        ],
        "numberOfBytes": "64"
      },
      "t_struct(Set)1807_storage": {
        "encoding": "inplace",
        "label": "struct EnumerableSet.Set",
        "members": [
          {
            "astId": 1802,
            "contract": "contracts/GooddoerFactory.sol:GooddoerFactory",
            "label": "_values",
            "offset": 0,
            "slot": "0",
            "type": "t_array(t_bytes32)dyn_storage"
          },
          {
            "astId": 1806,
            "contract": "contracts/GooddoerFactory.sol:GooddoerFactory",
            "label": "_indexes",
            "offset": 0,
            "slot": "1",
            "type": "t_mapping(t_bytes32,t_uint256)"
          }
        ],
        "numberOfBytes": "64"
      },
      "t_uint256": {
        "encoding": "inplace",
        "label": "uint256",
        "numberOfBytes": "32"
      }
    }
  }
}