{
  "address": "0x7C1322e21505bAC3a6dAB70FA2c8DeF25835AD8A",
  "abi": [
    {
      "inputs": [
        {
          "internalType": "address",
          "name": "admin_",
          "type": "address"
        },
        {
          "internalType": "address",
          "name": "operator_",
          "type": "address"
        }
      ],
      "stateMutability": "nonpayable",
      "type": "constructor"
    },
    {
      "anonymous": false,
      "inputs": [
        {
          "indexed": true,
          "internalType": "address",
          "name": "fundraiser",
          "type": "address"
        },
        {
          "indexed": false,
          "internalType": "uint256",
          "name": "fundraisingAmount",
          "type": "uint256"
        },
        {
          "indexed": false,
          "internalType": "address",
          "name": "beneficiary",
          "type": "address"
        },
        {
          "indexed": false,
          "internalType": "bytes32",
          "name": "documentName",
          "type": "bytes32"
        },
        {
          "indexed": false,
          "internalType": "string",
          "name": "documentUri",
          "type": "string"
        },
        {
          "indexed": false,
          "internalType": "bytes32",
          "name": "documentHash",
          "type": "bytes32"
        }
      ],
      "name": "FundraiserCreated",
      "type": "event"
    },
    {
      "anonymous": false,
      "inputs": [
        {
          "indexed": true,
          "internalType": "bytes32",
          "name": "role",
          "type": "bytes32"
        },
        {
          "indexed": true,
          "internalType": "bytes32",
          "name": "previousAdminRole",
          "type": "bytes32"
        },
        {
          "indexed": true,
          "internalType": "bytes32",
          "name": "newAdminRole",
          "type": "bytes32"
        }
      ],
      "name": "RoleAdminChanged",
      "type": "event"
    },
    {
      "anonymous": false,
      "inputs": [
        {
          "indexed": true,
          "internalType": "bytes32",
          "name": "role",
          "type": "bytes32"
        },
        {
          "indexed": true,
          "internalType": "address",
          "name": "account",
          "type": "address"
        },
        {
          "indexed": true,
          "internalType": "address",
          "name": "sender",
          "type": "address"
        }
      ],
      "name": "RoleGranted",
      "type": "event"
    },
    {
      "anonymous": false,
      "inputs": [
        {
          "indexed": true,
          "internalType": "bytes32",
          "name": "role",
          "type": "bytes32"
        },
        {
          "indexed": true,
          "internalType": "address",
          "name": "account",
          "type": "address"
        },
        {
          "indexed": true,
          "internalType": "address",
          "name": "sender",
          "type": "address"
        }
      ],
      "name": "RoleRevoked",
      "type": "event"
    },
    {
      "inputs": [],
      "name": "DEFAULT_ADMIN_ROLE",
      "outputs": [
        {
          "internalType": "bytes32",
          "name": "",
          "type": "bytes32"
        }
      ],
      "stateMutability": "view",
      "type": "function"
    },
    {
      "inputs": [],
      "name": "OPERATOR_ROLE",
      "outputs": [
        {
          "internalType": "bytes32",
          "name": "",
          "type": "bytes32"
        }
      ],
      "stateMutability": "view",
      "type": "function"
    },
    {
      "inputs": [
        {
          "internalType": "uint256",
          "name": "fundraisingAmount",
          "type": "uint256"
        },
        {
          "internalType": "address",
          "name": "beneficiary",
          "type": "address"
        },
        {
          "components": [
            {
              "internalType": "bytes32",
              "name": "name",
              "type": "bytes32"
            },
            {
              "internalType": "string",
              "name": "uri",
              "type": "string"
            },
            {
              "internalType": "bytes32",
              "name": "hash",
              "type": "bytes32"
            }
          ],
          "internalType": "struct IFundraiserStruct.DocumentParams",
          "name": "document",
          "type": "tuple"
        }
      ],
      "name": "createFundraiser",
      "outputs": [
        {
          "internalType": "bool",
          "name": "",
          "type": "bool"
        }
      ],
      "stateMutability": "nonpayable",
      "type": "function"
    },
    {
      "inputs": [
        {
          "internalType": "uint256",
          "name": "fundraiserId",
          "type": "uint256"
        }
      ],
      "name": "fundraiserById",
      "outputs": [
        {
          "internalType": "address",
          "name": "",
          "type": "address"
        }
      ],
      "stateMutability": "view",
      "type": "function"
    },
    {
      "inputs": [
        {
          "internalType": "uint256",
          "name": "offset",
          "type": "uint256"
        },
        {
          "internalType": "uint256",
          "name": "limit",
          "type": "uint256"
        }
      ],
      "name": "fundraisers",
      "outputs": [
        {
          "internalType": "address[]",
          "name": "fundraisersAddresses",
          "type": "address[]"
        }
      ],
      "stateMutability": "view",
      "type": "function"
    },
    {
      "inputs": [],
      "name": "fundraisersCount",
      "outputs": [
        {
          "internalType": "uint256",
          "name": "",
          "type": "uint256"
        }
      ],
      "stateMutability": "view",
      "type": "function"
    },
    {
      "inputs": [
        {
          "internalType": "bytes32",
          "name": "role",
          "type": "bytes32"
        }
      ],
      "name": "getRoleAdmin",
      "outputs": [
        {
          "internalType": "bytes32",
          "name": "",
          "type": "bytes32"
        }
      ],
      "stateMutability": "view",
      "type": "function"
    },
    {
      "inputs": [
        {
          "internalType": "bytes32",
          "name": "role",
          "type": "bytes32"
        },
        {
          "internalType": "uint256",
          "name": "index",
          "type": "uint256"
        }
      ],
      "name": "getRoleMember",
      "outputs": [
        {
          "internalType": "address",
          "name": "",
          "type": "address"
        }
      ],
      "stateMutability": "view",
      "type": "function"
    },
    {
      "inputs": [
        {
          "internalType": "bytes32",
          "name": "role",
          "type": "bytes32"
        }
      ],
      "name": "getRoleMemberCount",
      "outputs": [
        {
          "internalType": "uint256",
          "name": "",
          "type": "uint256"
        }
      ],
      "stateMutability": "view",
      "type": "function"
    },
    {
      "inputs": [
        {
          "internalType": "bytes32",
          "name": "role",
          "type": "bytes32"
        },
        {
          "internalType": "address",
          "name": "account",
          "type": "address"
        }
      ],
      "name": "grantRole",
      "outputs": [],
      "stateMutability": "nonpayable",
      "type": "function"
    },
    {
      "inputs": [
        {
          "internalType": "bytes32",
          "name": "role",
          "type": "bytes32"
        },
        {
          "internalType": "address",
          "name": "account",
          "type": "address"
        }
      ],
      "name": "hasRole",
      "outputs": [
        {
          "internalType": "bool",
          "name": "",
          "type": "bool"
        }
      ],
      "stateMutability": "view",
      "type": "function"
    },
    {
      "inputs": [
        {
          "internalType": "address",
          "name": "fundraiserAddress",
          "type": "address"
        }
      ],
      "name": "isFundraiserExist",
      "outputs": [
        {
          "internalType": "bool",
          "name": "",
          "type": "bool"
        }
      ],
      "stateMutability": "view",
      "type": "function"
    },
    {
      "inputs": [
        {
          "internalType": "bytes32",
          "name": "role",
          "type": "bytes32"
        },
        {
          "internalType": "address",
          "name": "account",
          "type": "address"
        }
      ],
      "name": "renounceRole",
      "outputs": [],
      "stateMutability": "nonpayable",
      "type": "function"
    },
    {
      "inputs": [
        {
          "internalType": "bytes32",
          "name": "role",
          "type": "bytes32"
        },
        {
          "internalType": "address",
          "name": "account",
          "type": "address"
        }
      ],
      "name": "revokeRole",
      "outputs": [],
      "stateMutability": "nonpayable",
      "type": "function"
    },
    {
      "inputs": [
        {
          "internalType": "bytes4",
          "name": "interfaceId",
          "type": "bytes4"
        }
      ],
      "name": "supportsInterface",
      "outputs": [
        {
          "internalType": "bool",
          "name": "",
          "type": "bool"
        }
      ],
      "stateMutability": "view",
      "type": "function"
    }
  ],
  "transactionHash": "0x22a86fa734b6215de77a7a0bb6c6bae00897b94b87c3eb641ac59c66199cc9c9",
  "args": [
    "0x2aE4874B596F9CbE37d8709B84063781D7Ce9C3d",
    "0x2aE4874B596F9CbE37d8709B84063781D7Ce9C3d"
  ],
  "numDeployments": 1,
  "solcInputHash": "3b702d68de031f05dedd1e44c3170316",
  "bytecode": "0x608060405234801562000010575f80fd5b50604051620031383803806200313883398101604081905262000033916200029b565b6001600160a01b0382166200009e5760405162461bcd60e51b815260206004820152602660248201527f476f6f64646f6572466163746f72793a2041646d696e206973207a65726f206160448201526564647265737360d01b60648201526084015b60405180910390fd5b6001600160a01b038116620001085760405162461bcd60e51b815260206004820152602960248201527f476f6f64646f6572466163746f72793a204f70657261746f72206973207a65726044820152686f206164647265737360b81b606482015260840162000095565b620001145f8362000148565b620001407f97667070c54ef182b0f5858b034beac1b6f3089aa2d3188bb1e8929f4fa9b9298262000148565b5050620002d1565b62000154828262000172565b5f8281526001602052604090206200016d908262000211565b505050565b5f828152602081815260408083206001600160a01b038516845290915290205460ff166200020d575f828152602081815260408083206001600160a01b03851684529091529020805460ff19166001179055620001cc3390565b6001600160a01b0316816001600160a01b0316837f2f8788117e7eff1d82e926ec794901d17c78024a50270940304540a733656f0d60405160405180910390a45b5050565b5f62000227836001600160a01b03841662000230565b90505b92915050565b5f8181526001830160205260408120546200027757508154600181810184555f8481526020808220909301849055845484825282860190935260409020919091556200022a565b505f6200022a565b80516001600160a01b038116811462000296575f80fd5b919050565b5f8060408385031215620002ad575f80fd5b620002b8836200027f565b9150620002c8602084016200027f565b90509250929050565b612e5980620002df5f395ff3fe608060405234801562000010575f80fd5b506004361062000104575f3560e01c8063755f4df2116200009f578063a217fddf116200006b578063a217fddf1462000254578063ca15c873146200025c578063d547741f1462000273578063f5b541a6146200028a575f80fd5b8063755f4df214620002055780639010d07c146200021c57806391d1485414620002335780639d3b4355146200024a575f80fd5b806336568abe11620000df57806336568abe14620001815780634122af4f14620001985780634598775e14620001af578063704914f814620001df575f80fd5b806301ffc9a71462000108578063248a9ca314620001345780632f2ff15d1462000168575b5f80fd5b6200011f6200011936600462000e38565b620002b2565b60405190151581526020015b60405180910390f35b620001596200014536600462000e61565b5f9081526020819052604090206001015490565b6040519081526020016200012b565b6200017f6200017936600462000e95565b620002df565b005b6200017f6200019236600462000e95565b6200030c565b6200011f620001a936600462000ec2565b62000392565b620001c6620001c036600462000e61565b620003a0565b6040516001600160a01b0390911681526020016200012b565b620001f6620001f036600462000ede565b62000419565b6040516200012b919062000eff565b6200011f6200021636600462000f4d565b62000527565b620001c66200022d36600462000ede565b62000817565b6200011f6200024436600462000e95565b62000837565b620001596200085f565b620001595f81565b620001596200026d36600462000e61565b62000871565b6200017f6200028436600462000e95565b62000889565b620001597f97667070c54ef182b0f5858b034beac1b6f3089aa2d3188bb1e8929f4fa9b92981565b5f6001600160e01b03198216635a05180f60e01b1480620002d95750620002d982620008b1565b92915050565b5f82815260208190526040902060010154620002fb81620008e7565b620003078383620008f6565b505050565b6001600160a01b0381163314620003825760405162461bcd60e51b815260206004820152602f60248201527f416363657373436f6e74726f6c3a2063616e206f6e6c792072656e6f756e636560448201526e103937b632b9903337b91039b2b63360891b60648201526084015b60405180910390fd5b6200038e82826200091b565b5050565b5f620002d960028362000940565b5f620003ad600262000962565b82106200040c5760405162461bcd60e51b815260206004820152602660248201527f476f6f64646f6572466163746f72793a20496e76616c69642066756e647261696044820152651cd95c881a5960d21b606482015260840162000379565b620002d96002836200096c565b60605f62000428600262000962565b905080841062000448575050604080515f815260208101909152620002d9565b5f62000455848662000fd3565b905080821015620004635750805b6200046f858262000fe9565b67ffffffffffffffff8111156200048a576200048a62000fab565b604051908082528060200260200182016040528015620004b4578160200160208202803683370190505b5092505f5b83518110156200051e57620004dc620004d3828862000fd3565b6002906200096c565b848281518110620004f157620004f162000fff565b6001600160a01b039092166020928302919091019091015280620005158162001013565b915050620004b9565b50505092915050565b5f835f036200058e5760405162461bcd60e51b815260206004820152602c60248201527f476f6f64646f6572466163746f72793a2046756e6472616973696e6720616d6f60448201526b756e74206c7465207a65726f60a01b606482015260840162000379565b6001600160a01b038316620005fb5760405162461bcd60e51b815260206004820152602c60248201527f476f6f64646f6572466163746f72793a2042656e65666963696172792069732060448201526b7a65726f206164647265737360a01b606482015260840162000379565b8135620006605760405162461bcd60e51b815260206004820152602c60248201527f476f6f64646f6572466163746f72793a20446f63756d656e74206e616d65206960448201526b73207a65726f20627974657360a01b606482015260840162000379565b5f6200067060208401846200102e565b905011620006d05760405162461bcd60e51b815260206004820152602660248201527f476f6f64646f6572466163746f72793a20446f63756d656e742075726920697360448201526520656d70747960d01b606482015260840162000379565b5f60405180602001620006e39062000e2a565b601f1982820381018352601f9091011660408190526200070c90879087908790602001620010a3565b60408051601f19818403018152908290526200072c92916020016200115a565b60408051601f1981840301815291905290505f858585356200075260208801886200102e565b88604001356040516020016200076e969594939291906200118c565b6040516020818303038152906040528051906020012090505f818351602085015ff59050803b6200079d575f80fd5b620007aa60028262000979565b506001600160a01b0381167fe8333866aa1ed2bfa2e686cd62d1ccfffd5031430afe9ace15197848d2a980f988888835620007e960208b018b6200102e565b8b604001356040516200080296959493929190620011c7565b60405180910390a25060019695505050505050565b5f8281526001602052604081206200083090836200096c565b9392505050565b5f918252602082815260408084206001600160a01b0393909316845291905290205460ff1690565b5f6200086c600262000962565b905090565b5f818152600160205260408120620002d99062000962565b5f82815260208190526040902060010154620008a581620008e7565b6200030783836200091b565b5f6001600160e01b03198216637965db0b60e01b1480620002d957506301ffc9a760e01b6001600160e01b0319831614620002d9565b620008f381336200098f565b50565b620009028282620009f3565b5f82815260016020526040902062000307908262000979565b62000927828262000a7a565b5f82815260016020526040902062000307908262000ae1565b6001600160a01b0381165f908152600183016020526040812054151562000830565b5f620002d9825490565b5f62000830838362000af7565b5f62000830836001600160a01b03841662000b20565b6200099b828262000837565b6200038e57620009ab8162000b6f565b620009b883602062000b82565b604051602001620009cb92919062001209565b60408051601f198184030181529082905262461bcd60e51b8252620003799160040162001281565b620009ff828262000837565b6200038e575f828152602081815260408083206001600160a01b03851684529091529020805460ff1916600117905562000a363390565b6001600160a01b0316816001600160a01b0316837f2f8788117e7eff1d82e926ec794901d17c78024a50270940304540a733656f0d60405160405180910390a45050565b62000a86828262000837565b156200038e575f828152602081815260408083206001600160a01b0385168085529252808320805460ff1916905551339285917ff6391f5c32d9c69d2a47ea670b442974b53935d1edc7fd64eb21e047a839171b9190a45050565b5f62000830836001600160a01b03841662000d36565b5f825f01828154811062000b0f5762000b0f62000fff565b905f5260205f200154905092915050565b5f81815260018301602052604081205462000b6757508154600181810184555f848152602080822090930184905584548482528286019093526040902091909155620002d9565b505f620002d9565b6060620002d96001600160a01b03831660145b60605f62000b92836002620012b5565b62000b9f90600262000fd3565b67ffffffffffffffff81111562000bba5762000bba62000fab565b6040519080825280601f01601f19166020018201604052801562000be5576020820181803683370190505b509050600360fc1b815f8151811062000c025762000c0262000fff565b60200101906001600160f81b03191690815f1a905350600f60fb1b8160018151811062000c335762000c3362000fff565b60200101906001600160f81b03191690815f1a9053505f62000c57846002620012b5565b62000c6490600162000fd3565b90505b600181111562000ce5576f181899199a1a9b1b9c1cb0b131b232b360811b85600f166010811062000c9c5762000c9c62000fff565b1a60f81b82828151811062000cb55762000cb562000fff565b60200101906001600160f81b03191690815f1a90535060049490941c9362000cdd81620012cf565b905062000c67565b508315620008305760405162461bcd60e51b815260206004820181905260248201527f537472696e67733a20686578206c656e67746820696e73756666696369656e74604482015260640162000379565b5f818152600183016020526040812054801562000e20575f62000d5b60018362000fe9565b85549091505f9062000d709060019062000fe9565b905081811462000dd6575f865f01828154811062000d925762000d9262000fff565b905f5260205f200154905080875f01848154811062000db55762000db562000fff565b5f918252602080832090910192909255918252600188019052604090208390555b855486908062000dea5762000dea620012e7565b600190038181905f5260205f20015f90559055856001015f8681526020019081526020015f205f905560019350505050620002d9565b5f915050620002d9565b611b2880620012fc83390190565b5f6020828403121562000e49575f80fd5b81356001600160e01b03198116811462000830575f80fd5b5f6020828403121562000e72575f80fd5b5035919050565b80356001600160a01b038116811462000e90575f80fd5b919050565b5f806040838503121562000ea7575f80fd5b8235915062000eb96020840162000e79565b90509250929050565b5f6020828403121562000ed3575f80fd5b620008308262000e79565b5f806040838503121562000ef0575f80fd5b50508035926020909101359150565b602080825282518282018190525f9190848201906040850190845b8181101562000f415783516001600160a01b03168352928401929184019160010162000f1a565b50909695505050505050565b5f805f6060848603121562000f60575f80fd5b8335925062000f726020850162000e79565b9150604084013567ffffffffffffffff81111562000f8e575f80fd5b84016060818703121562000fa0575f80fd5b809150509250925092565b634e487b7160e01b5f52604160045260245ffd5b634e487b7160e01b5f52601160045260245ffd5b80820180821115620002d957620002d962000fbf565b81810381811115620002d957620002d962000fbf565b634e487b7160e01b5f52603260045260245ffd5b5f6001820162001027576200102762000fbf565b5060010190565b5f808335601e1984360301811262001044575f80fd5b83018035915067ffffffffffffffff8211156200105f575f80fd5b60200191503681900382131562001074575f80fd5b9250929050565b81835281816020850137505f828201602090810191909152601f909101601f19169091010190565b83815260018060a01b038316602082015260606040820152813560608201525f6020830135601e19843603018112620010da575f80fd5b830160208101903567ffffffffffffffff811115620010f7575f80fd5b80360382131562001106575f80fd5b606060808501526200111d60c0850182846200107b565b915050604084013560a084015280915050949350505050565b5f5b838110156200115257818101518382015260200162001138565b50505f910152565b5f83516200116d81846020880162001136565b8351908301906200118381836020880162001136565b01949350505050565b8681526bffffffffffffffffffffffff198660601b166020820152846034820152828460548301376054920191820152607401949350505050565b86815260018060a01b038616602082015284604082015260a060608201525f620011f660a0830185876200107b565b9050826080830152979650505050505050565b7f416363657373436f6e74726f6c3a206163636f756e742000000000000000000081525f83516200124281601785016020880162001136565b7001034b99036b4b9b9b4b733903937b6329607d1b60179184019182015283516200127581602884016020880162001136565b01602801949350505050565b602081525f8251806020840152620012a181604085016020870162001136565b601f01601f19169190910160400192915050565b8082028115828204841417620002d957620002d962000fbf565b5f81620012e057620012e062000fbf565b505f190190565b634e487b7160e01b5f52603160045260245ffdfe60a060405234801562000010575f80fd5b5060405162001b2838038062001b288339810160408190526200003391620005b3565b33608052620000515f8051602062001b088339815191528362000093565b6004839055600580546001600160a01b0319166001600160a01b0384161790558051602082015160408301516200008a9291906200011d565b50505062000954565b6200009f82826200014a565b62000119575f8281526003602090815260408083206001600160a01b03851684529091529020805460ff19166001179055620000d83390565b6001600160a01b0316816001600160a01b0316837f2f8788117e7eff1d82e926ec794901d17c78024a50270940304540a733656f0d60405160405180910390a45b5050565b5f8051602062001b08833981519152620001378162000176565b6200014484848462000185565b50505050565b5f8281526003602090815260408083206001600160a01b038516845290915290205460ff165b92915050565b62000182813362000290565b50565b82620001b15760405162461bcd60e51b8152602060048201525f60248201526044015b60405180910390fd5b5f825111620001dc5760405162461bcd60e51b8152602060048201525f6024820152604401620001a8565b5f838152602081905260408120600101549003620002035762000201600182620002f4565b505b604080516060810182528281524260208083019182528284018681525f888152918290529390208251815590516001820155915190919060028201906200024b908262000740565b50905050827fb4c22d60cd550a815744f04e3ff5278bf19684565ee00e2b084041b6024bd6f683836040516200028392919062000835565b60405180910390a2505050565b6200029c82826200014a565b6200011957620002ac8162000308565b620002b98360206200031b565b604051602001620002cc92919062000858565b60408051601f198184030181529082905262461bcd60e51b8252620001a891600401620008d0565b5f620003018383620004ce565b9392505050565b6060620001706001600160a01b03831660145b60605f6200032b836002620008f8565b6200033890600262000912565b6001600160401b038111156200035257620003526200051d565b6040519080825280601f01601f1916602001820160405280156200037d576020820181803683370190505b509050600360fc1b815f815181106200039a576200039a62000928565b60200101906001600160f81b03191690815f1a905350600f60fb1b81600181518110620003cb57620003cb62000928565b60200101906001600160f81b03191690815f1a9053505f620003ef846002620008f8565b620003fc90600162000912565b90505b60018111156200047d576f181899199a1a9b1b9c1cb0b131b232b360811b85600f166010811062000434576200043462000928565b1a60f81b8282815181106200044d576200044d62000928565b60200101906001600160f81b03191690815f1a90535060049490941c9362000475816200093c565b9050620003ff565b508315620003015760405162461bcd60e51b815260206004820181905260248201527f537472696e67733a20686578206c656e67746820696e73756666696369656e746044820152606401620001a8565b5f8181526001830160205260408120546200051557508154600181810184555f84815260208082209093018490558454848252828601909352604090209190915562000170565b505f62000170565b634e487b7160e01b5f52604160045260245ffd5b604051606081016001600160401b03811182821017156200055657620005566200051d565b60405290565b604051601f8201601f191681016001600160401b03811182821017156200058757620005876200051d565b604052919050565b5f5b83811015620005ab57818101518382015260200162000591565b50505f910152565b5f805f60608486031215620005c6575f80fd5b8351602080860151919450906001600160a01b0381168114620005e7575f80fd5b60408601519093506001600160401b038082111562000604575f80fd5b908601906060828903121562000618575f80fd5b6200062262000531565b82518152838301518281111562000637575f80fd5b8301601f81018a1362000648575f80fd5b8051838111156200065d576200065d6200051d565b62000671601f8201601f191687016200055c565b93508084528a8682840101111562000687575f80fd5b62000698818786018885016200058f565b5050928301526040908101519082015292959194509192509050565b600181811c90821680620006c957607f821691505b602082108103620006e857634e487b7160e01b5f52602260045260245ffd5b50919050565b601f8211156200073b575f81815260208120601f850160051c81016020861015620007165750805b601f850160051c820191505b81811015620007375782815560010162000722565b5050505b505050565b81516001600160401b038111156200075c576200075c6200051d565b62000774816200076d8454620006b4565b84620006ee565b602080601f831160018114620007aa575f8415620007925750858301515b5f19600386901b1c1916600185901b17855562000737565b5f85815260208120601f198616915b82811015620007da57888601518255948401946001909101908401620007b9565b5085821015620007f857878501515f19600388901b60f8161c191681555b5050505050600190811b01905550565b5f8151808452620008218160208601602086016200058f565b601f01601f19169290920160200192915050565b604081525f62000849604083018562000808565b90508260208301529392505050565b7f416363657373436f6e74726f6c3a206163636f756e742000000000000000000081525f8351620008918160178501602088016200058f565b7001034b99036b4b9b9b4b733903937b6329607d1b6017918401918201528351620008c48160288401602088016200058f565b01602801949350505050565b602081525f62000301602083018462000808565b634e487b7160e01b5f52601160045260245ffd5b8082028115828204841417620001705762000170620008e4565b80820180821115620001705762000170620008e4565b634e487b7160e01b5f52603260045260245ffd5b5f816200094d576200094d620008e4565b505f190190565b60805161119b6200096d5f395f610244015261119b5ff3fe608060405234801561000f575f80fd5b50600436106100f0575f3560e01c806375b238fc11610093578063b10d6b4111610063578063b10d6b411461020a578063c35018481461022c578063c45a01551461023f578063d547741f14610266575f80fd5b806375b238fc146101b457806391d14854146101db5780639fa5f50b146101ee578063a217fddf14610203575f80fd5b80632f2ff15d116100ce5780632f2ff15d1461015f57806336568abe1461017457806338af3eed1461018757806374dcba56146101ac575f80fd5b8063010648ca146100f457806301ffc9a71461011c578063248a9ca31461012f575b5f80fd5b610107610102366004610d07565b610279565b60405190151581526020015b60405180910390f35b61010761012a366004610dc4565b61028f565b61015161013d366004610deb565b5f9081526003602052604090206001015490565b604051908152602001610113565b61017261016d366004610e02565b6102c5565b005b610172610182366004610e02565b6102ee565b6005546001600160a01b03165b6040516001600160a01b039091168152602001610113565b600454610151565b6101517fa49807205ce4d355092ef5a8a18f56e8913cf4a201fbe287825b095693c2177581565b6101076101e9366004610e02565b610371565b6101f661039b565b6040516101139190610e3b565b6101515f81565b61021d610218366004610deb565b6103e9565b60405161011393929190610ecb565b61010761023a366004610deb565b610508565b6101947f000000000000000000000000000000000000000000000000000000000000000081565b610172610274366004610e02565b61051a565b5f61028584848461053e565b5060019392505050565b5f6001600160e01b03198216637965db0b60e01b14806102bf57506301ffc9a760e01b6001600160e01b03198316145b92915050565b5f828152600360205260409020600101546102df81610579565b6102e98383610586565b505050565b6001600160a01b03811633146103635760405162461bcd60e51b815260206004820152602f60248201527f416363657373436f6e74726f6c3a2063616e206f6e6c792072656e6f756e636560448201526e103937b632b9903337b91039b2b63360891b60648201526084015b60405180910390fd5b61036d828261060b565b5050565b5f9182526003602090815260408084206001600160a01b0393909316845291905290205460ff1690565b60605f6103a86001610671565b90505f5b818110156103e4576103bf60018261067a565b8382815181106103d1576103d1610eef565b60209081029190910101526001016103ac565b505090565b5f818152602081905260408120600201805460609291829161040a90610f03565b90505f036104335760405162461bcd60e51b8152602060048201525f602482015260440161035a565b5f84815260208181526040808320815160608101835281548152600182015493810193909352600281018054919284019161046d90610f03565b80601f016020809104026020016040519081016040528092919081815260200182805461049990610f03565b80156104e45780601f106104bb576101008083540402835291602001916104e4565b820191905f5260205f20905b8154815290600101906020018083116104c757829003601f168201915b50505091909252505050604081015181516020909201519097919650945092505050565b5f6105128261068c565b506001919050565b5f8281526003602052604090206001015461053481610579565b6102e9838361060b565b7fa49807205ce4d355092ef5a8a18f56e8913cf4a201fbe287825b095693c2177561056881610579565b6105738484846106bf565b50505050565b61058381336107bb565b50565b6105908282610371565b61036d575f8281526003602090815260408083206001600160a01b03851684529091529020805460ff191660011790556105c73390565b6001600160a01b0316816001600160a01b0316837f2f8788117e7eff1d82e926ec794901d17c78024a50270940304540a733656f0d60405160405180910390a45050565b6106158282610371565b1561036d575f8281526003602090815260408083206001600160a01b0385168085529252808320805460ff1916905551339285917ff6391f5c32d9c69d2a47ea670b442974b53935d1edc7fd64eb21e047a839171b9190a45050565b5f6102bf825490565b5f6106858383610814565b9392505050565b7fa49807205ce4d355092ef5a8a18f56e8913cf4a201fbe287825b095693c217756106b681610579565b61036d8261083a565b826106e55760405162461bcd60e51b8152602060048201525f602482015260440161035a565b5f82511161070e5760405162461bcd60e51b8152602060048201525f602482015260440161035a565b5f838152602081905260408120600101549003610732576107306001826109bc565b505b604080516060810182528281524260208083019182528284018681525f888152918290529390208251815590516001820155915190919060028201906107789082610f88565b50905050827fb4c22d60cd550a815744f04e3ff5278bf19684565ee00e2b084041b6024bd6f683836040516107ae929190611044565b60405180910390a2505050565b6107c58282610371565b61036d576107d2816109c7565b6107dd8360206109d9565b6040516020016107ee929190611065565b60408051601f198184030181529082905262461bcd60e51b825261035a916004016110d9565b5f825f01828154811061082957610829610eef565b905f5260205f200154905092915050565b5f81815260208181526040808320815160608101835281548152600182015493810193909352600281018054919284019161087490610f03565b80601f01602080910402602001604051908101604052809291908181526020018280546108a090610f03565b80156108eb5780601f106108c2576101008083540402835291602001916108eb565b820191905f5260205f20905b8154815290600101906020018083116108ce57829003601f168201915b505050505081525050905080602001515f036109415760405162461bcd60e51b8152602060048201526015602482015274111bd8dd5b595b9d08191bd95cdb9d08195e1a5cdd605a1b604482015260640161035a565b805161094f90600190610b6f565b505f82815260208190526040812081815560018101829055906109756002830182610ca9565b5050817f3d9bba27d3e360d8c80645beed7e991454a8271bf6f269a24f7782be0f0d06548260400151835f01516040516109b0929190611044565b60405180910390a25050565b5f6106858383610b7a565b60606102bf6001600160a01b03831660145b60605f6109e78360026110ff565b6109f2906002611116565b67ffffffffffffffff811115610a0a57610a0a610cf3565b6040519080825280601f01601f191660200182016040528015610a34576020820181803683370190505b509050600360fc1b815f81518110610a4e57610a4e610eef565b60200101906001600160f81b03191690815f1a905350600f60fb1b81600181518110610a7c57610a7c610eef565b60200101906001600160f81b03191690815f1a9053505f610a9e8460026110ff565b610aa9906001611116565b90505b6001811115610b20576f181899199a1a9b1b9c1cb0b131b232b360811b85600f1660108110610add57610add610eef565b1a60f81b828281518110610af357610af3610eef565b60200101906001600160f81b03191690815f1a90535060049490941c93610b1981611129565b9050610aac565b5083156106855760405162461bcd60e51b815260206004820181905260248201527f537472696e67733a20686578206c656e67746820696e73756666696369656e74604482015260640161035a565b5f6106858383610bc6565b5f818152600183016020526040812054610bbf57508154600181810184555f8481526020808220909301849055845484825282860190935260409020919091556102bf565b505f6102bf565b5f8181526001830160205260408120548015610ca0575f610be860018361113e565b85549091505f90610bfb9060019061113e565b9050818114610c5a575f865f018281548110610c1957610c19610eef565b905f5260205f200154905080875f018481548110610c3957610c39610eef565b5f918252602080832090910192909255918252600188019052604090208390555b8554869080610c6b57610c6b611151565b600190038181905f5260205f20015f90559055856001015f8681526020019081526020015f205f9055600193505050506102bf565b5f9150506102bf565b508054610cb590610f03565b5f825580601f10610cc4575050565b601f0160209004905f5260205f209081019061058391905b80821115610cef575f8155600101610cdc565b5090565b634e487b7160e01b5f52604160045260245ffd5b5f805f60608486031215610d19575f80fd5b83359250602084013567ffffffffffffffff80821115610d37575f80fd5b818601915086601f830112610d4a575f80fd5b813581811115610d5c57610d5c610cf3565b604051601f8201601f19908116603f01168101908382118183101715610d8457610d84610cf3565b81604052828152896020848701011115610d9c575f80fd5b826020860160208301375f602084830101528096505050505050604084013590509250925092565b5f60208284031215610dd4575f80fd5b81356001600160e01b031981168114610685575f80fd5b5f60208284031215610dfb575f80fd5b5035919050565b5f8060408385031215610e13575f80fd5b8235915060208301356001600160a01b0381168114610e30575f80fd5b809150509250929050565b602080825282518282018190525f9190848201906040850190845b81811015610e7257835183529284019291840191600101610e56565b50909695505050505050565b5f5b83811015610e98578181015183820152602001610e80565b50505f910152565b5f8151808452610eb7816020860160208601610e7e565b601f01601f19169290920160200192915050565b606081525f610edd6060830186610ea0565b60208301949094525060400152919050565b634e487b7160e01b5f52603260045260245ffd5b600181811c90821680610f1757607f821691505b602082108103610f3557634e487b7160e01b5f52602260045260245ffd5b50919050565b601f8211156102e9575f81815260208120601f850160051c81016020861015610f615750805b601f850160051c820191505b81811015610f8057828155600101610f6d565b505050505050565b815167ffffffffffffffff811115610fa257610fa2610cf3565b610fb681610fb08454610f03565b84610f3b565b602080601f831160018114610fe9575f8415610fd25750858301515b5f19600386901b1c1916600185901b178555610f80565b5f85815260208120601f198616915b8281101561101757888601518255948401946001909101908401610ff8565b508582101561103457878501515f19600388901b60f8161c191681555b5050505050600190811b01905550565b604081525f6110566040830185610ea0565b90508260208301529392505050565b7f416363657373436f6e74726f6c3a206163636f756e742000000000000000000081525f835161109c816017850160208801610e7e565b7001034b99036b4b9b9b4b733903937b6329607d1b60179184019182015283516110cd816028840160208801610e7e565b01602801949350505050565b602081525f6106856020830184610ea0565b634e487b7160e01b5f52601160045260245ffd5b80820281158282048414176102bf576102bf6110eb565b808201808211156102bf576102bf6110eb565b5f81611137576111376110eb565b505f190190565b818103818111156102bf576102bf6110eb565b634e487b7160e01b5f52603160045260245ffdfea26469706673582212201a50ae607e5d1b04d6ec79cc936cad9a7d5419e3843e4f17b3b77f7e8b1d77ba64736f6c63430008150033a49807205ce4d355092ef5a8a18f56e8913cf4a201fbe287825b095693c21775a2646970667358221220b5d53c0100f4b654223acaad3ce4cdc5465227299d9b4102e1af29a90ae2ffa864736f6c63430008150033",
  "devdoc": {
    "events": {
      "RoleAdminChanged(bytes32,bytes32,bytes32)": {
        "details": "Emitted when `newAdminRole` is set as ``role``'s admin role, replacing `previousAdminRole` `DEFAULT_ADMIN_ROLE` is the starting admin for all roles, despite {RoleAdminChanged} not being emitted signaling this. _Available since v3.1._"
      },
      "RoleGranted(bytes32,address,address)": {
        "details": "Emitted when `account` is granted `role`. `sender` is the account that originated the contract call, an admin role bearer except when using {AccessControl-_setupRole}."
      },
      "RoleRevoked(bytes32,address,address)": {
        "details": "Emitted when `account` is revoked `role`. `sender` is the account that originated the contract call:   - if using `revokeRole`, it is the admin role bearer   - if using `renounceRole`, it is the role bearer (i.e. `account`)"
      }
    },
    "kind": "dev",
    "methods": {
      "getRoleAdmin(bytes32)": {
        "details": "Returns the admin role that controls `role`. See {grantRole} and {revokeRole}. To change a role's admin, use {_setRoleAdmin}."
      },
      "getRoleMember(bytes32,uint256)": {
        "details": "Returns one of the accounts that have `role`. `index` must be a value between 0 and {getRoleMemberCount}, non-inclusive. Role bearers are not sorted in any particular way, and their ordering may change at any point. WARNING: When using {getRoleMember} and {getRoleMemberCount}, make sure you perform all queries on the same block. See the following https://forum.openzeppelin.com/t/iterating-over-elements-on-enumerableset-in-openzeppelin-contracts/2296[forum post] for more information."
      },
      "getRoleMemberCount(bytes32)": {
        "details": "Returns the number of accounts that have `role`. Can be used together with {getRoleMember} to enumerate all bearers of a role."
      },
      "grantRole(bytes32,address)": {
        "details": "Grants `role` to `account`. If `account` had not been already granted `role`, emits a {RoleGranted} event. Requirements: - the caller must have ``role``'s admin role. May emit a {RoleGranted} event."
      },
      "hasRole(bytes32,address)": {
        "details": "Returns `true` if `account` has been granted `role`."
      },
      "renounceRole(bytes32,address)": {
        "details": "Revokes `role` from the calling account. Roles are often managed via {grantRole} and {revokeRole}: this function's purpose is to provide a mechanism for accounts to lose their privileges if they are compromised (such as when a trusted device is misplaced). If the calling account had been revoked `role`, emits a {RoleRevoked} event. Requirements: - the caller must be `account`. May emit a {RoleRevoked} event."
      },
      "revokeRole(bytes32,address)": {
        "details": "Revokes `role` from `account`. If `account` had been granted `role`, emits a {RoleRevoked} event. Requirements: - the caller must have ``role``'s admin role. May emit a {RoleRevoked} event."
      },
      "supportsInterface(bytes4)": {
        "details": "See {IERC165-supportsInterface}."
      }
    },
    "version": 1
  },
  "userdoc": {
    "kind": "user",
    "methods": {},
    "version": 1
  },
  "storageLayout": {
    "storage": [
      {
        "astId": 24,
        "contract": "contracts/GooddoerFactory.sol:GooddoerFactory",
        "label": "_roles",
        "offset": 0,
        "slot": "0",
        "type": "t_mapping(t_bytes32,t_struct(RoleData)19_storage)"
      },
      {
        "astId": 334,
        "contract": "contracts/GooddoerFactory.sol:GooddoerFactory",
        "label": "_roleMembers",
        "offset": 0,
        "slot": "1",
        "type": "t_mapping(t_bytes32,t_struct(AddressSet)2122_storage)"
      },
      {
        "astId": 2849,
        "contract": "contracts/GooddoerFactory.sol:GooddoerFactory",
        "label": "_fundraisers",
        "offset": 0,
        "slot": "2",
        "type": "t_struct(AddressSet)2122_storage"
      }
    ],
    "types": {
      "t_address": {
        "encoding": "inplace",
        "label": "address",
        "numberOfBytes": "20"
      },
      "t_array(t_bytes32)dyn_storage": {
        "base": "t_bytes32",
        "encoding": "dynamic_array",
        "label": "bytes32[]",
        "numberOfBytes": "32"
      },
      "t_bool": {
        "encoding": "inplace",
        "label": "bool",
        "numberOfBytes": "1"
      },
      "t_bytes32": {
        "encoding": "inplace",
        "label": "bytes32",
        "numberOfBytes": "32"
      },
      "t_mapping(t_address,t_bool)": {
        "encoding": "mapping",
        "key": "t_address",
        "label": "mapping(address => bool)",
        "numberOfBytes": "32",
        "value": "t_bool"
      },
      "t_mapping(t_bytes32,t_struct(AddressSet)2122_storage)": {
        "encoding": "mapping",
        "key": "t_bytes32",
        "label": "mapping(bytes32 => struct EnumerableSet.AddressSet)",
        "numberOfBytes": "32",
        "value": "t_struct(AddressSet)2122_storage"
      },
      "t_mapping(t_bytes32,t_struct(RoleData)19_storage)": {
        "encoding": "mapping",
        "key": "t_bytes32",
        "label": "mapping(bytes32 => struct AccessControl.RoleData)",
        "numberOfBytes": "32",
        "value": "t_struct(RoleData)19_storage"
      },
      "t_mapping(t_bytes32,t_uint256)": {
        "encoding": "mapping",
        "key": "t_bytes32",
        "label": "mapping(bytes32 => uint256)",
        "numberOfBytes": "32",
        "value": "t_uint256"
      },
      "t_struct(AddressSet)2122_storage": {
        "encoding": "inplace",
        "label": "struct EnumerableSet.AddressSet",
        "members": [
          {
            "astId": 2121,
            "contract": "contracts/GooddoerFactory.sol:GooddoerFactory",
            "label": "_inner",
            "offset": 0,
            "slot": "0",
            "type": "t_struct(Set)1807_storage"
          }
        ],
        "numberOfBytes": "64"
      },
      "t_struct(RoleData)19_storage": {
        "encoding": "inplace",
        "label": "struct AccessControl.RoleData",
        "members": [
          {
            "astId": 16,
            "contract": "contracts/GooddoerFactory.sol:GooddoerFactory",
            "label": "members",
            "offset": 0,
            "slot": "0",
            "type": "t_mapping(t_address,t_bool)"
          },
          {
            "astId": 18,
            "contract": "contracts/GooddoerFactory.sol:GooddoerFactory",
            "label": "adminRole",
            "offset": 0,
            "slot": "1",
            "type": "t_bytes32"
          }
        ],
        "numberOfBytes": "64"
      },
      "t_struct(Set)1807_storage": {
        "encoding": "inplace",
        "label": "struct EnumerableSet.Set",
        "members": [
          {
            "astId": 1802,
            "contract": "contracts/GooddoerFactory.sol:GooddoerFactory",
            "label": "_values",
            "offset": 0,
            "slot": "0",
            "type": "t_array(t_bytes32)dyn_storage"
          },
          {
            "astId": 1806,
            "contract": "contracts/GooddoerFactory.sol:GooddoerFactory",
            "label": "_indexes",
            "offset": 0,
            "slot": "1",
            "type": "t_mapping(t_bytes32,t_uint256)"
          }
        ],
        "numberOfBytes": "64"
      },
      "t_uint256": {
        "encoding": "inplace",
        "label": "uint256",
        "numberOfBytes": "32"
      }
    }
  }
}